:020000040800F2
:10000000202F0020D50100086D080008A905000870
:10001000690800088D040008B710000800000000FF
:100020000000000000000000000000001D0D00089E
:100030009104000800000000250C0008310E0008A3
:10004000EF010008EF010008EF010008EF010008D0
:10005000EF010008EF010008EF010008EF010008C0
:10006000EF010008EF010008EF010008EF010008B0
:10007000EF010008EF010008EF010008EF010008A0
:10008000EF010008EF010008EF010008EF01000890
:10009000EF010008EF010008EF010008EF01000880
:1000A000EF010008EF010008EF010008EF01000870
:1000B000EF010008EF010008EF010008EF01000860
:1000C000EF010008EF010008EF010008EF01000850
:1000D000EF010008950E0008EF010008EF0100088D
:1000E000EF010008EF010008EF010008EF01000830
:1000F000EF010008EF010008EF010008EF01000820
:10010000EF010008EF010008EF010008EF0100080F
:10011000EF010008EF010008EF010008EF010008FF
:10012000EF010008EF010008EF010008EF010008EF
:1001300000F002F800F03FF80AA090E8000C8244BA
:100140008344AAF10107DA4501D100F034F8AFF297
:10015000090EBAE80F0013F0010F18BFFB1A43F0A5
:1001600001031847A0270000C0270000103A24BF51
:1001700078C878C1FAD8520724BF30C830C144BF0C
:1001800004680C607047000000230024002500264E
:10019000103A28BF78C1FBD8520728BF30C148BFEA
:1001A0000B607047692900F07780002070471FB509
:1001B0001FBD10B510BD00F037F91146FFF7F7FF6E
:1001C00000F0D4FF00F055F903B4FFF7F2FF03BCD1
:1001D00000F073FF0948804709480047FEE7FEE743
:1001E000FEE7FEE7FEE7FEE7FEE7FEE7FEE7FEE7E7
:1001F00004480549054A064B70470000350E0008C3
:100200003101000820290020202F0020202B002071
:10021000202B0020704700000FB4044910B503AA3A
:10022000029800F0D3F810BC5DF814FB6C000020BD
:100230002DE9F0410E460446002020622046E16888
:10024000884730B3252805D0D4E901219047206A9A
:10025000401CF2E7E168204600278847050018D0D7
:10026000A5F14100192802D820354FF40067324625
:10027000294620462760FFF795FF40B1012804D0AA
:10028000F61D26F007060836D8E7361DD6E72846BD
:10029000DAE7206ABDE8F0812DE9F0410646002446
:1002A00010687529314616A510D0AFF300800028DC
:1002B00002DA404213A507E031688A0701D512A58A
:1002C00002E0490704D511A5012401E0AFF3008045
:1002D00000210A2206F1240709E0B0FBF2FCB0FB82
:1002E000F2F302FB1C00303078541846491C0028F9
:1002F000F3D123462A463046BDE8F04100F00CB861
:10030000000000002D0000002B0000002000000075
:1003100070477047704770472DE9F0470D46994682
:100320009246044600F124080168880604D5E06975
:1003300021F01001216000E00120A84201DD471BEF
:1003400000E00027A1697A1902EB0900081AA061F0
:100350002078C00602D42046AFF30080002608E0D3
:10036000D4E901211AF806009047206A401C761C47
:1003700020624E45F4DB2078C0060AD52046AFF354
:10038000008006E0D4E9012130209047206A401C1B
:100390002062381EA7F10107F4DC07E0D4E901214F
:1003A00018F805009047206A401C2062281EA5F11D
:1003B0000105F3DC2046AFF300802078000602D56B
:1003C0000220BDE8F0870120FBE70000074B70B575
:1003D0000D467B4400F011F80446284600F020F852
:1003E00010B14FF0FF3070BD204670BD7B0D000096
:1003F00001694A1C02610878704700B58FB0CDE9E9
:1004000001310021059105497944CDE903101146D8
:100410006846FFF70DFF0FB000BD0000E5FFFFFFCE
:10042000007B00F080007047754600F02BF8AE4668
:1004300005006946534620F00700854618B020B5F0
:10044000FFF7D6FEBDE820404FF000064FF0000752
:100450004FF000084FF0000B21F00701AC46ACE86C
:10046000C009ACE8C009ACE8C009ACE8C0098D46D9
:10047000704710B50446AFF300802046BDE8104039
:10048000FFF7A2BE00487047C028002000BFFEE76B
:1004900070472DE9F0410246002500260020002388
:1004A0000024002791F803C00CF00F0591F803C059
:1004B0000CF0100CBCF1000F03D091F802C04CEA14
:1004C000050591F800C0BCF1000F31D01468002080
:1004D0002BE04FF0010C0CFA00F3B1F800C00CEA6D
:1004E00003069E4220D183004FF00F0C0CFA03F755
:1004F000BC4305FA03FC4CEA040491F803C0BCF1C8
:10050000280F06D14FF0010C0CFA00FCC2F814C001
:100510000AE091F803C0BCF1480F05D14FF0010C7F
:100520000CFA00FCC2F810C0401C0828D1D314609B
:10053000B1F800C0BCF1FF0F34DD546800202EE09C
:1005400000F1080C4FF0010808FA0CF3B1F800C0F4
:100550000CEA03069E4221D183004FF00F0C0CFAE7
:1005600003F7BC4305FA03FC4CEA040491F803C00A
:10057000BCF1280F05D100F1080C08FA0CF8C2F8FC
:10058000148091F803C0BCF1480F07D100F1080CAA
:100590004FF0010808FA0CF8C2F81080401C082837
:1005A000CED35460BDE8F08100BFFEE710B5002057
:1005B0000F4908600F48406820F470400D494860BA
:1005C0000846406840F44050486000200A49C1F89D
:1005D000AC01022000F096FD0120054908600220D0
:1005E00000F090FD00200449C1F8B00110BD0000EA
:1005F000B0012242001001400000224208B5012152
:10060000102000F011FB4FF4C050ADF80000102096
:100610008DF8030003208DF8020069460448FFF7B7
:1006200038FF0120034908600349C1F8AC0108BD47
:1006300000100140B00122420000224210B500200B
:100640000F4908600F48406820F470400D49486029
:100650000846406840F44050486001200A49C1F80B
:10066000AC01022000F04EFD012005490860022087
:1006700000F048FD00200449C1F8B00110BD0000A1
:10068000B0012242001001400000224270B5054630
:1006900000241748406820F4704015494860084617
:1006A000406840F400404860002616E000201149F0
:1006B0000860022000F026FD01200F49C1F8B001BA
:1006C0006006040E0B488438006808B1601CC4B290
:1006D000012000F017FD701CC6B2082EE6DB15B92C
:1006E000FFF7ACFF01E0FFF761FF204670BD00009F
:1006F00000100140B00122420000224270B50446C1
:100700001548406820F47040134948600846406826
:1007100040F440504860002010490860002517E070
:10072000E0090E49091F08606006040E022000F06F
:10073000E9FC01200A49C1F8B001022000F0E2FC06
:10074000002006490860022000F0DCFC681CC5B2ED
:10075000082DE5DB70BD000000100140B001224211
:100760000000224210B50F48406820F470400D4947
:1007700048600846406840F44050486001200A49FB
:1007800008600A49C1F8B001042000F0BBFC002059
:1007900005490860042000F0B5FC00200349C1F8B9
:1007A000B00110BD00100140AC0122420000224205
:1007B00010B51148406820F470400F494860084661
:1007C000406840F44050486000200C4908600C49E3
:1007D000C1F8AC01042000F095FC01200749086035
:1007E000042000F08FFC01200549C1F8AC01042071
:1007F00000F088FC10BD000000100140B001224252
:100800000000224210B500241448406820F47040D3
:10081000124948600846406840F4004048600120A2
:100820000F49086000F06EFC01200E49C1F8B001CC
:1008300000F068FC07E0601CC4B2FA2C03DDFFF78F
:10084000B7FF012010BD0648803800680028F2D1AB
:100850000349091D086000BFF4E7000000100140D3
:10086000AC0122420000224200BFFEE770470000B8
:1008700070B5002100230F22C47804B3154C2468FE
:1008800004F4E064C4F5E064210AC1F10403CA4041
:10089000447804FA03F184781440214309010E4C92
:1008A0000678A155047804F01F050124AC400578B2
:1008B0006D11AD0005F1E025C5F8004109E00478AF
:1008C00004F01F050124AC40044D0678761145F86C
:1008D000264070BD0CED00E000E400E080E100E0A7
:1008E00002490143024A1160704700000000FA0506
:1008F0000CED00E070B506460024002500BF15E0B1
:1009000004F1B001C8B200F014F8002000F011F8B2
:10091000102000F00EF8002504E0304600F06CF9DD
:10092000681CC5B2802DF8DB601CC4B2082CE7DB64
:1009300070BD10B50446FFF715FF7820FFF7DEFE07
:10094000FFF760FF0020FFF7D9FEFFF75BFF2046AF
:10095000FFF7D4FEFFF756FFFFF72AFF10BD000098
:100960002DE9F04107460D4614462946384600F069
:1009700091F8002C08DA2D222946384600F09CF820
:1009800005F10800C5B2644205F13800C1B2202269
:10099000384600F091F83D4894FBF0F0C6B206F1FD
:1009A0003000C2B22946384600F086F8374894FB3A
:1009B000F0F100FB1144364894FBF0F0C6B206F1AA
:1009C0003000C2B205F10800C1B2384600F074F838
:1009D0002F4894FBF0F100FB114442F2107094FB9D
:1009E000F0F0C6B206F13000C2B205F11000C1B29B
:1009F000384600F061F842F2107094FBF0F100FB11
:100A000011444FF47A7094FBF0F0C6B206F1300056
:100A1000C2B205F11800C1B2384600F04DF84FF4EB
:100A20007A7094FBF0F100FB1144642094FBF0F029
:100A3000C6B206F13000C2B205F12000C1B238469C
:100A400000F03AF8642094FBF0F100FB11440A2016
:100A500094FBF0F0C6B206F13000C2B205F12800F6
:100A6000C1B2384600F028F80A2094FBF0F100FBF0
:100A70001144E6B206F13000C2B205F13000C1B255
:100A8000384600F019F8BDE8F081000040420F0040
:100A9000A086010070B505460C4605F1B001C8B24C
:100AA000FFF747FF102101EB1410FFF742FF04F09E
:100AB0000F00FFF73EFF70BD2DE9F0410646884666
:100AC0001746A7F12000C5B2002441463046FFF783
:100AD000E1FF00BF07E004EB05110E4A505C00F097
:100AE0008BF8601CC4B2082CF5DB711CC8B24146FF
:100AF000FFF7D0FF002409E0082101EB0511214494
:100B0000044A505C00F078F8601CC4B2082CF3DB97
:100B1000BDE8F0811C22000870B506460D4614465B
:100B200008E0227829463046FFF7C6FF05F10800A5
:100B3000C5B2641C20780028F3D170BD10B5FFF752
:100B40005DFDAE20FFF7F5FE0220FFF7F2FE10205C
:100B5000FFF7EFFE4020FFF7ECFE8120FFF7E9FEF4
:100B6000CF20FFF7E6FEA120FFF7E3FEC820FFF746
:100B7000E0FEA620FFF7DDFEA820FFF7DAFE3F200B
:100B8000FFF7D7FED320FFF7D4FE0020FFF7D1FEFA
:100B9000D520FFF7CEFE8020FFF7CBFED920FFF750
:100BA000C8FEF120FFF7C5FEDA20FFF7C2FE1220D3
:100BB000FFF7BFFEDB20FFF7BCFE4020FFF7B9FECA
:100BC0002020FFF7B6FE0220FFF7B3FE8D20FFF7CF
:100BD000B0FE1420FFF7ADFEA420FFF7AAFEA6206A
:100BE000FFF7A7FEAF20FFF7A4FEAF20FFF7A1FE9F
:100BF0000020FFF77FFE10BD10B50446FFF7B2FDE1
:100C00007820FFF77BFDFFF7FDFD4020FFF776FD25
:100C1000FFF7F8FD2046FFF771FDFFF7F3FDFFF743
:100C2000C7FD10BD7047000029B1064A9269024312
:100C3000044B9A6104E0034A92698243014B9A6132
:100C4000704700000010024030B50021002200244F
:100C500000232D4D6D6805F00C0121B1042905D04C
:100C6000082923D105E0294D056022E0274D0560C4
:100C70001FE0254D6D6805F47012234D6D6805F475
:100C80008034022505EB92421CB9214D5543056085
:100C90000BE01D4D6D6805F400351DB11C4D55432D
:100CA000056002E0194D5543056002E0174D0560EF
:100CB00000BF00BF144D6D6805F0F0010909154D26
:100CC0006B5C0568DD4045600F4D6D6805F4E061C3
:100CD000090A104D6B5C4568DD4085600A4D6D6802
:100CE00005F46051C90A0B4D6B5C4568DD40C56079
:100CF000054D6D6805F44041890B074D6B5CC56877
:100D0000B5FBF3F5056130BD0010024000127A001A
:100D100000093D005800002068000020704710B511
:100D200000F002F810BD00000CB50020019000900A
:100D30003348006840F480303149086000BF3048D3
:100D4000006800F4003000900198401C0190009869
:100D500018B90198B0F5A06FF1D12948006800F4E6
:100D6000003010B10120009001E0002000900098B8
:100D7000012843D12348006840F010002149086051
:100D80000846006820F0030008600846006840F04C
:100D9000020008601A4840681949486008464068DF
:100DA00048600846406840F48060486008464068F3
:100DB00020F47C1048600846406840F4E810486021
:100DC0000846006840F08070086000BF0C4800686A
:100DD00000F000700028F9D00948406820F00300B6
:100DE000074948600846406840F00200486000BF7C
:100DF0000348406800F00C000828F9D10CBD000041
:100E00000010024000200240042808D14FF0E021E9
:100E1000096941F004014FF0E022116107E04FF051
:100E2000E021096921F004014FF0E02211617047CF
:100E30007047000010B51348006840F001001149E8
:100E4000086008464068104908400E494860084656
:100E500000680E4908400B4908600846006820F405
:100E6000802008600846406820F4FE0048604FF487
:100E70001F008860FFF753FF4FF0006004490860CF
:100E800010BD0000001002400000FFF8FFFFF6FE5A
:100E900008ED00E010B540F225511D4800F04AF879
:100EA00010B31B4800F002F9C4B21A48008800F4DD
:100EB0000040C8B91748008800F4804060B10A2C8F
:100EC00003D000201349088020E01248008840F435
:100ED00000401049088019E00D2C06D10D4800880B
:100EE00040F480400B49088010E00A480088C0F3B5
:100EF0000D0009490C5407480088401C054908802A
:100F000008460088C72801DD0020088010BD0000C9
:100F10000038014070000020F827002021B18289AC
:100F200042F40052828104E082894DF6FF731A4038
:100F30008281704770B502460024002300250020FE
:100F400040F66A16B14200D100BFC1F3421501F06C
:100F50001F03012606FA03F3012D02D196893340BF
:100F600006E0022D02D1168A334001E0968A334012
:100F70000C12012606FA04F41688344013B10CB1A1
:100F8000012000E0002070BDF0B5034600240026DB
:100F90000025002040F66A17B94200D100BF18466C
:100FA000C1F3421401F01F06012707FA06F5012CD0
:100FB00001D10C3004E0022C01D1103000E01430DB
:100FC0001AB107682F43076002E00768AF43076064
:100FD000F0BD00002DE9F04786B005460E4600241E
:100FE000A24600BFA1460027B08900B100BF2F462E
:100FF0002C8A4CF6FF700440F08804432C82AC89A4
:101000004EF6F3100440B0883189084371890843D3
:101010000443AC81AC8A4FF6FF400440B0890443DE
:10102000AC8201A8FFF710FE1F48874202D1DDF80D
:1010300010A001E0DDF80CA0A88900F4004040B148
:101040000AEBCA0000EB0A1031684900B0FBF1F866
:1010500007E00AEBCA0000EB0A1031688900B0FB18
:10106000F1F86420B8FBF0F004012009642101FBD1
:101070001089A88900F4004040B1322000EBC9007B
:10108000B0FBF1F000F00700044308E0322000EB71
:1010900009106421B0FBF1F000F00F0004432C8133
:1010A00006B0BDE8F087000000380140014688889E
:1010B000C0F30800704700BFFEE7014600BF70475D
:1010C00010B56FF00400FFF79FFE0A4800680A4958
:1010D000B0FBF1F0094908700846007800EB4001C8
:1010E000C1EBC0104FF6FF7101EAC000044908804F
:1010F00010BD00004400002000127A0072000020A1
:10110000740000200146114A12784A434FF0E02350
:101110005A6100229A611A46126942F001021A616C
:1011200000BF4FF0E022106900F001021AB100F494
:101130008032002AF5D04FF0E022126922F001023D
:101140004FF0E0231A6100229A617047720000207C
:1011500000BF054A128802F04002002AF9D0C2B24C
:10116000014B1B1D1A8070470038014088B0A5A1B3
:1011700003C9CDE90601A5A103C9CDE90401FFF723
:101180009FFFFFF7DBFC06AA00210846FFF7C4FC1F
:1011900004AA00210420FFF7BFFC4FF4A060FFF772
:1011A0009FFBFFF78DFF4FF4E13000F029FEFFF7C2
:1011B00025FA00F045FD10B996A0FFF72DF89C49DF
:1011C000002000F013FD10B99AA0FFF725F800F0F9
:1011D0004FFC10B9A1A0FFF71FF80027A54D00266E
:1011E0004FF4FA70A4490860A4A0FFF715F8002492
:1011F0002FE000BFA54800680128FBD0A44A02EBFD
:101200008401A44A02EB840000F084FCA04850F85A
:101210002400A84202D29E4850F824509C4850F81E
:101220002400B04202D99A4850F824609AA0FEF7F0
:10123000F3FF974850F8241099A0FEF7EDFF99A00E
:10124000FEF7EAFF934850F8241098A0FEF7E4FF59
:10125000641C894800688442CBDB8D4850F82480A8
:1012600094489549954A964BCDE900210290884AC9
:1012700081480168874800F07BF9C1E000247D4D7A
:101280000026642420E0824850F82410A4F1640071
:101290007F4A42F820107F4850F82410A4F16400DF
:1012A0007C4A42F820107A4850F82400A84202D222
:1012B000774850F82450764850F82400B04202D9BC
:1012C000734850F82460641CB4F5FA7FDBDB4FF4FC
:1012D000C87479E0601E6E4951F8208000BF6B48E9
:1012E00000680128FBD06A4A02EB8401694A02EBDC
:1012F000840000F00FFC664850F8240040451DD9DA
:10130000634951F82410A1EB080000F0A7FE8146C4
:10131000701B00F0A3FE82465146484600F0C0FD17
:1013200081466849484600F0ADFE8146484600F0D7
:1013300079FE3F1A002F1EDA00271CE0544951F8AD
:101340002410A8EB010000F089FE8146701B00F01C
:1013500085FE82465146484600F0A2FD8146594925
:10136000484600F08FFE8146484600F05BFE074489
:10137000FF2F00DDFF2748A0FEF74EFF444850F83E
:10138000241047A0FEF748FF46A0FEF745FF41485E
:1013900050F8241042A0FEF73FFF474801684AA0DA
:1013A000FEF73AFF434890F900104AA0FEF734FFD9
:1013B000434801684BA0FEF72FFF404890F900100A
:1013C0004BA0FEF729FF641CB4F5FA7F82DB3A4894
:1013D0003C2102680020FFF7C3FA39483C2102682B
:1013E0000420FFF7BDFA33483349344A344BCDE982
:1013F00000210290264A20480168264800F0B8F8EB
:101400003CE700004852203D2000000053704F325E
:10141000203D20006D617833303130325F7265736A
:101420006574206661696C6564210D0A0000000026
:1014300011000020726561645F7265672052454744
:101440005F494E54525F5354415455535F312066A7
:1014500061696C6564210D0A000000006D617833DC
:10146000303130325F696E6974206661696C656421
:10147000210D0A00FFFF030000000020B2C9BCAF2D
:10148000353030B8F6D1F9B1BE0D0A0014812142D1
:1014900048080020780000207265643D00000000CC
:1014A000256900002C2069723D00000025690D0AA5
:1014B00000000000100000200C00002008000020A8
:1014C0000400002000007F432C2048523D25692C59
:1014D00020000000485276616C69643D25692C202B
:1014E0000000000053704F323D25692C20000000A1
:1014F00053504F3256616C69643D25690D0A0000F6
:1015000008B501210820FFF78FFB2020ADF800006F
:1015100004208DF8030003208DF80200694602487C
:10152000FEF7B7FF08BD0000000C01402DE9F847A9
:1015300005460C4616461F46DDE90A9ADDF824806A
:101540003B46324621462846CDF8008000F0A6FBF7
:101550004B4632462146284600F0DDFB20685045C8
:1015600001DA206800E050462060BDE8F8870000FE
:101570002DE9FF4FC6B088469946002045900024CB
:1015800006E0469850F82410459808444590641C9D
:101590004445F6DB4598B0FBF8F04590002408E0A0
:1015A000469850F824104598081AFE4941F824003E
:1015B000641C4445F4DB002417E0FA4850F824107A
:1015C0000246601C52F820000144A01C52F8200082
:1015D0000144E01C52F820000F183846F91707EBB9
:1015E0009171891042F82410641CB4F5F87FE4DB93
:1015F00000240AE0EB49601C51F8200051F8241047
:10160000401AE94941F82400641CB4F5F77FF1DD84
:1016100000240EE0E44951F824200B46611C53F8E5
:101620002110501800EBD07149101A4642F82410CE
:10163000641CB4F5F77FEDDB00251BE00020439030
:101640002C460BE0D84850F82410601BD74A32F8DB
:101650001020439801FB12004390641C681D8442D3
:10166000F0DB40F27A41439890FBF1F0CE4941F82B
:1016700025006D1CB5F5F47FE0DD002041900024CD
:1016800010E0C94850F82400002803DDC64850F88F
:10169000240003E0C44850F8240040424199084423
:1016A0004190641CB4F5F77FEBDD40F2EF114198F7
:1016B00090FBF1F0419005210822419840F2EF1390
:1016C000CDE901210090B84A40A912A8FFF72EFFEA
:1016D000002011904098022821DB01240BE012A881
:1016E00050F82410601E12AA52F82000091A11980E
:1016F00008441190641C40988442F0DB4098401EDE
:10170000119991FBF0F0119041F27071119891FBD9
:10171000F0F15498016001215598017005E0A44949
:1017200054980160002155980170002407E012A828
:1017300050F82400801C30A941F82400641C409813
:101740008442F4DB00240CE0469850F824009549CC
:1017500041F82400489850F82400964941F82400A4
:10176000641C4445F0DB0020429000242DE0012061
:10177000449030A850F824A04FF080703F900AF1B8
:101780000500B0F5F77F1FDC0A3800281CDD054690
:1017900011E0844850F825103F9881420ADA4498B5
:1017A00008B1002044907F4850F825003F9021A8C0
:1017B00040F824506D1C0AF105008542E9DB44988D
:1017C00010B94298401C4290641C40988442CEDB81
:1017D0004298022808DA7648C9F800000021539898
:1017E00001704AB0BDE8F08F00242EE06D4951F839
:1017F00024200B46611C53F821100A44A11C53F805
:1018000021100A44E11C53F821105018C11700EBB5
:10181000917189101A4642F82410664951F8242023
:101820000B46611C53F821100A44A11C53F82110E7
:101830000A44E11C53F821105018C11700EB9171B4
:1018400089101A4642F82410641CB4F5F87FCDDBE9
:10185000002004900026002404E0002005A941F89F
:101860002400641C052CF8DB00240DE021A850F8AE
:101870002400B0F5FA7F06DD4D48C9F800000021CC
:1018800053980170ADE7641C42988442EEDB00245B
:10189000AEE04FF07F400D900C9021A9601C51F8F4
:1018A000200051F82410401A0A2879DD21A850F8A8
:1018B000245016E03B4850F825100C98814204DD76
:1018C000384850F825000C900A953A4850F82510F1
:1018D0000D98814204DD374850F825000D900B9596
:1018E0006D1C21A9601C51F82000A842E2DC601C9C
:1018F00051F820002F4951F8200021A951F8241057
:101900002C4A52F82110401A21A951F824200B9991
:10191000891A4843109021A9601C51F8200051F801
:101920002410411A109890FBF1F021A951F82410CD
:10193000204A52F821100844109011460B9851F893
:1019400020101098081A109021A9601C51F820004E
:10195000144951F8200021A951F82410114A52F8D5
:101960002110401A21A951F824200A99891A4843C4
:101970000F9021A9601C51F8200051F82410411A41
:101980000F9890FBF1F021A951F82410054A52F864
:10199000211008440F9011460B9851F820100BE0CD
:1019A00025E0000058180020981000200C2800089E
:1019B00019FCFFFF282000200F98081A0F900C999F
:1019C00010984843C01103900D990F984843C711D0
:1019D000002F0CDD052E0ADA039840B1642103982C
:1019E000484390FBF7F005A941F82600761C641CDB
:1019F0004298401EA0423FF74CAF314605A800F088
:101A0000C3F9304606EBD0714FEA610BBBF1010F11
:101A10000CDDABF1010105AA52F8211052F82B2080
:101A2000881800EBD0714910049103E005A850F824
:101A30002B000490049802280DDD0498B8280ADAD7
:101A400009490498085C0E900E98C9F8000001211D
:101A50005398017005E00548C9F80000002153982B
:101A6000017000BFBDE600004A28000819FCFFFF16
:101A700010B5FFF745FDC021022000F0EBF808B9D2
:101A8000002010BD0021032000F0E4F808B9002078
:101A9000F7E70021042000F0DDF808B90020F0E7A6
:101AA0000021052000F0D6F808B90020E9E7002160
:101AB000062000F0CFF808B90020E2E70F21082047
:101AC00000F0C8F808B90020DBE70321092000F086
:101AD000C1F808B90020D4E727210A2000F0BAF89D
:101AE00008B90020CDE724210C2000F0B3F808B994
:101AF0000020C6E724210D2000F0ACF808B9002032
:101B0000BFE77F21102000F0A5F808B90020B8E752
:101B10000120B6E72DE9FE4304460D460020206073
:101B2000286002A900F062F802A9012000F05EF826
:101B300007208DF80000FEF715FEAE20FEF7DEFD53
:101B4000FEF760FE07469DF80000FEF7D7FDFEF7A2
:101B500059FE8046FEF706FEAF20FEF7CFFDFEF7EA
:101B600051FE81460120FEF791FD064636042068AD
:101B7000304420600120FEF789FD064636022068C9
:101B8000304420600120FEF781FD06462068304485
:101B900020600120FEF77AFD0646360428683044AE
:101BA00028600120FEF772FD0646360228683044A0
:101BB00028600120FEF76AFD064628683044286048
:101BC0002068C0F3110020602868C0F3110028606D
:101BD000FEF7EEFD2FB9B8F1000F02D1B9F1000FF9
:101BE00002D00020BDE8FE830120FBE72DE9F04193
:101BF00005460C46FEF7B6FDAE20FEF77FFDFEF76C
:101C000001FE06462846FEF779FDFEF7FBFD074676
:101C1000FEF7A8FDAF20FEF771FDFEF7F3FD80464D
:101C20000020FEF733FD2070FEF7C2FD1EB917B984
:101C3000B8F1000F02D00020BDE8F0810120FBE7E1
:101C400010B54021092000F005F808B9002010BDAA
:101C50000120FCE72DE9F04105460C46FEF782FD28
:101C6000AE20FEF74BFDFEF7CDFD06462846FEF7FB
:101C700045FDFEF7C7FD07462046FEF73FFDFEF790
:101C8000C1FD8046FEF794FD1EB917B9B8F1000FEB
:101C900002D00020BDE8F0810120FBE7F0B5054649
:101CA0001C46059E012000270F6030E052F820708E
:101CB000B7422BDD52F820C0471E52F82770BC45B2
:101CC00024DD012300E05B1CC718A74207DA52F8A5
:101CD000207000EB030C52F82CC06745F3D052F88B
:101CE000207000EB030C52F82CC067450CDD0F6828
:101CF0000F2F09DAD1F800C00CF101070F6045F889
:101D00002C005F1C384402E0184400E0401C671EB1
:101D10008742CBDCF0BD2DE9F04F05460C469246DC
:101D2000984629465046226800F049F84FF0FF36A1
:101D300021E0D4F800B0701C2060771C18E055F842
:101D40002710701C10B94FF0FF3001E055F8260045
:101D5000A1EB0009C14503DCC8F10000814506DAAA
:101D600055F827102268501C206045F822107F1C6F
:101D70005F45E4DB761C2068B042DADC2846216847
:101D800000F002F8BDE8F08F30B50C46012213E0F8
:101D900050F82230114605E04D1E50F8255040F80D
:101DA0002150491E002904DD4D1E50F825509D424A
:101DB000F2DC40F82130521CA242E9DB30BDF0B524
:101DC00003461546012217E051F82240104605E06F
:101DD000461E51F8266041F82060401E002808DDAC
:101DE00053F82470461E51F8266053F82660B74217
:101DF000EEDC41F82040521CAA42E5DBF0BD0000B9
:101E000010B586B00446012144F20400FEF70CFF31
:101E10004FF40070ADF8140003208DF81600182060
:101E20008DF8170005A91C48FEF733FB4FF48060BE
:101E3000ADF8140004208DF8170005A91648FEF728
:101E400028FB25208DF8000003208DF801008DF877
:101E5000020001208DF803006846FEF709FD019499
:101E60000020ADF80800ADF80A00ADF80C00ADF8A0
:101E700010000C20ADF80E0001A90848FFF7AAF8E1
:101E8000012240F225510548FFF77EF80121034861
:101E9000FFF744F806B010BD0008014000380140CB
:101EA0004FF47F0C1CEAD0121EBF1CEAD11392EA39
:101EB0000C0F93EA0C0F00F0858090EA010F48BFE9
:101EC00042F4807240F4000C41F400002CF07F4199
:101ED00020F07F4000B58142A2EB03020FF2081C04
:101EE000ACEB504EC0F100009EF800E04FEA4E0E01
:101EF00000FB0EFC38BF49004FEA2C1C02F5FA0229
:101F00000CFB0EF34FEACE1E4FEA112C4FEAC12113
:101F10000EEB635E42EB22420EFB0CFC4FEA1C53BD
:101F200000FB03114FEA112C4FEA01310EFB0CFCB0
:101F30004FEADC4C00FB0C11C14228BF09184CEBE6
:101F400003335DF804EB10EB410143EBC250B2F5F3
:101F50007C0F38BF704729D512F0F00F1CBF00F17D
:101F6000C04000F0004070470081828384858687EE
:101F700088898B8C8D8E8F919293959697999A9C48
:101F80009D9FA0A2A3A5A7A8AAACAEB0B2B3B5B7B7
:101F9000B9BCBEC0C2C5C7C9CCCED1D4D7D9DCDF8D
:101FA000E2E6E9ECF0F3F7FAFE0000004FEA400C3D
:101FB0000CF1807CBCF17E4F28BF7047B0F1C0406F
:101FC00000F027B990EA010F0CEAD11348BF42F4A0
:101FD0008072624538BF634507D213F47F0F16D075
:101FE00080EA010000F00040704710B500F0CBF827
:101FF000097EFC3E00F005B880EA010000F00040D8
:10200000704780EA010000F0004000F002B912F4CD
:102010007F0F04BF0248704780EA010000F0F9B862
:102020000000C07F41000B0ED3F19E0208D950F48E
:1020300000034FEA032323FA02F048BF40427047EF
:1020400010B500F0A0F800BF49922480002070472E
:102050006FF0004282EA200070470000B0FA80F37F
:1020600010FA03F2C3F19D030AD0D90501EB122047
:10207000530638BF704700F1010008BF20F001008F
:10208000704700004FF47F0C1CEAD0121EBF1CEA00
:10209000D11392EA0C0F93EA0C0F00F0478090EAFC
:1020A000010F48BF42F480724FF0004C4CEA002010
:1020B0004CEA012102EB0302A0FB0113A2F500028E
:1020C000002918BF43F001035B0028BF4FEA330328
:1020D00042EB22425FEA132C4CEBC2502EBFBCEB0A
:1020E000436FB2F57C0F70474FEA036CBCF1004FB1
:1020F00008BF20F00100B2F57C0F38BF70470BD548
:1021000082F0FF0212F5803FC8BF704700F1C04067
:10211000D8BF00F00040704700F5000C5FEA4C0C9F
:1021200048BF7047B0F1C04000F073B890EA010FAB
:102130000CEAD11348BF42F48072624538BF634550
:1021400004D280EA010000F00040704710B500F0B2
:102150001AF800BF8900013E00F007B800F009B886
:102160005FEA410C5FEA1C6C08D080EA010000F0D5
:1021700050B85FEA400C5FEA1C6CF6D14FF00040AB
:10218000A0F5800070470EF1020E2EF0030E5EF8EF
:10219000044B244204D44FEA4102B2F17F4F11D8DC
:1021A0004FEA4003B3F17F4F0CD80ED14FEAD07CF9
:1021B000B2F17F4F0CEB4C0C0CF1020C08BF4CEB56
:1021C000D17C04E04FF0080C01E04FEAD17C0CEB2D
:1021D0004C0324FA03F404F00704B4F1040C06D20F
:1021E0000EEB840CBDE810404CF0010C6047DFE8BA
:1021F0000CF0070802024FF00040A0F5800010BD6F
:102200000846420018BFD2F1807288BF00F000403B
:1022100010BDFF2141EAD050C0057047000000000A
:10222000000000000000000000000000000000F8B6
:1022300000000000000000333000000000100C0619
:10224000100C0600000000000000000040C07840B4
:10225000C0784000043F04043F040400007088FC80
:1022600008300000001820FF211E0000F008F000D8
:10227000E018000000211C031E211E0000F0088849
:10228000700000001E2123241927211000020204DF
:10229000000000000000000000000000000000E05E
:1022A0001804020000000007182040000002041873
:1022B000E00000000040201807000000404080F0CF
:1022C000804040000202010F01020200000000F005
:1022D000000000000101011F0101010000000000D9
:1022E0000000000080B0700000000000000000004E
:1022F00000000000000101010101010100000000D7
:10230000000000000030300000000000000000006D
:1023100080601804006018060100000000E010084A
:102320000810E000000F102020100F00001010F81F
:10233000000000000020203F20200000007008085E
:1023400008887000003028242221300000300888DE
:10235000884830000018202020110E000000C02006
:1023600010F8000000070424243F240000F8088827
:10237000880808000019212020110E0000E01088B4
:1023800088180000000F112020110E0000380808E6
:10239000C83808000000003F0000000000708808F6
:1023A00008887000001C222121221C0000E0100877
:1023B0000810E0000000312222110F00000000C0D0
:1023C000C00000000000003030000000000000806D
:1023D000000000000000806000000000000080405D
:1023E0002010080000010204081020004040404076
:1023F00040404000040404040404040000081020C9
:10240000408000000020100804020100007048080D
:102410000808F0000000003036010000C030C82875
:10242000E810E0000718272423140B000000C03830
:10243000E0000000203C23020227382008F88888AA
:1024400088700000203F202020110E00C0300808B6
:1024500008083800071820202010080008F808088D
:102460000810E000203F202020100F0008F8888886
:10247000E8081000203F20202320180008F8888852
:10248000E8081000203F200003000000C0300808CA
:102490000838000007182020221E020008F8080053
:1024A0000008F808203F210101213F20000808F81A
:1024B000080800000020203F20200000000008083D
:1024C000F8080800C08080807F00000008F888C0FD
:1024D00028180800203F20012638200008F80800AE
:1024E00000000000203F20202020300008F8F800E5
:1024F000F8F80800203F003F003F200008F830C0F7
:102500000008F808203F200007183F00E0100808E6
:102510000810E0000F10202020100F0008F8080815
:102520000808F000203F210101010000E010080828
:102530000810E0000F18242438504F0008F888884D
:1025400088887000203F2000030C3020007088082D
:10255000080838000038202121221C00180808F83B
:10256000080818000000203F2000000008F80800BC
:102570000008F808001F202020201F00087888008D
:1025800000C83808000007380E010000F80800F8FD
:102590000008F800033C0700073C030008186880A7
:1025A0008068180820302C03032C30200838C8001D
:1025B000C83808000000203F20000000100808086C
:1025C000C83808002038262120201800000000FE0E
:1025D000020202000000007F40404000000C30C0BA
:1025E00000000000000000010638C00000020202E6
:1025F000FE000000004040407F0000000000040298
:1026000002020400000000000000000000000000C2
:1026100000000000808080808080808010160E0086
:1026200000000000000000000000000000008080AA
:10263000808000000019242222223F2008F8008018
:1026400080000000003F112020110E0000000080DB
:1026500080800000000E112020201100000000806A
:102660008088F800000E112020103F20000080809C
:1026700080800000001F222222221300008080F0B0
:10268000888888180020203F2020000000008080DB
:1026900080808000006B94949493600008F8008020
:1026A00080800000203F210000203F20008098987B
:1026B000000000000020203F2020000000000080DB
:1026C0009898000000C08080807F000008F800001B
:1026D00080808000203F24022D302000000808F870
:1026E000000000000020203F20200000808080802B
:1026F00080808000203F20003F20003F80800080BD
:1027000080800000203F210000203F2000008080CA
:1027100080800000001F202020201F00808000807B
:102720008000000080FFA12020110E00000000802A
:1027300080808000000E112020A0FF80808080001B
:102740008080800020203F21200001000000808048
:10275000808080000033242424241900008080E03D
:10276000808000000000001F20200000808000000A
:1027700000808000001F202020103F2080808000EB
:102780000080808000010E300806010080800080FB
:10279000008080800F300C030C300F000080800020
:1027A000808080000020312E0E312000808080004B
:1027B0000080808080818E701806010000808080FB
:1027C000808080000021302C222130000000000099
:1027D000807C020200000000003F4040000000003A
:1027E000FF00000000000000FF0000000002027C6B
:1027F000800000000040403F000000000006010192
:10280000020204040000000000000000290014017E
:102810000002140129000000000000000000000078
:1028200000000000000000000000000000000000A8
:102830000000000000000000000000000000000098
:10284000000000000000000000005F5F5F6060604B
:102850006161616161626262626263636363636357
:10286000636364646464646464646464646464642A
:102870006464646464646363636363636363626224
:102880006262626261616161606060605F5F5F5E41
:102890005E5E5D5D5D5C5C5C5B5B5A5A5959595884
:1028A00058575756565555545453525251515050EB
:1028B0004F4E4E4D4C4C4B4A4A4948484746454579
:1028C0004443424241403F3E3E3D3C3B3A3938382A
:1028D00037363534333231302F2E2D2C2B2A292800
:1028E000272625242322211F1E1D1C1B1A191716FB
:1028F00015141311100F0E0C0B0A0907060503021D
:1029000001000000242900080000002078000000D9
:102910006C0100089C29000878000020A82E000007
:102920008801000800000000000000000000000016
:102930000000000000000000000000000000000097
:102940000000000000000000000000000000000087
:102950000000000000000000000000000000000077
:10296000000000000000000000A24A040000000077
:10297000000000000102030406070809000000002F
:102980000102030401020304060708090204060801
:0C2990000000000000000000000000003B
:04000005080001D519
:00000001FF
